:060000000000FEEF0FF00E
:100100000000700ED36EE0EC00F0000E016E000EE9
:10011000ABEC00F0010E016E000EC7EC00F00B0E10
:10012000066E260E056E5E0EE82EFED7052EFCD757
:10013000062EFAD7000E016E000EC7EC00F00B0E73
:10014000066E260E056E5E0EE82EFED7052EFCD737
:10015000062EFAD7DFD7046E0ED00104D8A403D040
:10016000026A022A01D0026A024692500218FD0B6E
:100170000218926E12000450026E036A0350000AC5
:10018000D8A412000250000AD8A41200E6D7046EC8
:1001900006D001B002D0899201D0898212000450A9
:1001A000026E036A0350000AD8A412000250000A2B
:1001B000D8A41200EED7000EF86E000181EF00F017
:0201C00012002B
:041FFC00DBEF00F027
:020000040030CA
:08000000FFC80F1EFF0081FF85
:00000001FF
